{
  "contractName": "Contratacion",
  "abi": [
    {
      "constant": true,
      "inputs": [
        {
          "name": "",
          "type": "uint256"
        }
      ],
      "name": "servicio",
      "outputs": [
        {
          "name": "",
          "type": "address"
        }
      ],
      "payable": false,
      "stateMutability": "view",
      "type": "function"
    },
    {
      "constant": false,
      "inputs": [
        {
          "name": "idServicio",
          "type": "uint256"
        }
      ],
      "name": "contratar",
      "outputs": [
        {
          "name": "",
          "type": "uint256"
        }
      ],
      "payable": false,
      "stateMutability": "nonpayable",
      "type": "function"
    }
  ],
  "bytecode": "0x608060405234801561001057600080fd5b506101b9806100206000396000f30060806040526004361061004c576000357c0100000000000000000000000000000000000000000000000000000000900463ffffffff1680632815d3bd14610051578063cec72f8f14610092575b600080fd5b34801561005d57600080fd5b5061007c600480360381019080803590602001909291905050506100ff565b6040518082815260200191505060405180910390f35b34801561009e57600080fd5b506100bd6004803603810190808035906020019092919050505061015a565b604051808273ffffffffffffffffffffffffffffffffffffffff1673ffffffffffffffffffffffffffffffffffffffff16815260200191505060405180910390f35b60003360008084815260200190815260200160002060006101000a81548173ffffffffffffffffffffffffffffffffffffffff021916908373ffffffffffffffffffffffffffffffffffffffff160217905550819050919050565b60006020528060005260406000206000915054906101000a900473ffffffffffffffffffffffffffffffffffffffff16815600a165627a7a72305820511472dcd8fa6bbe8f52e4f6852d35bb3d24e70b4ab4ad37e898763b510c77360029",
  "source": "pragma solidity ^0.4.19;\r\n\r\ncontract Contratacion {\r\n\r\n    mapping (uint => address) public servicio;\r\n\r\n\r\n    struct CLiente {\r\n        uint idCliente;\r\n        uint idServicio;\r\n    }\r\n\r\n    \r\n    function contratar(uint idServicio) public  returns (uint) {\r\n        servicio[idServicio] = msg.sender;\r\n        return idServicio;\r\n    }\r\n}",
  "sourcePath": "D:\\Users\\jose.benito.BABEL-SI\\Desktop\\Hackathon\\contracts\\Contratacion.sol",
  "compiler": {
    "name": "solc",
    "version": "0.4.24+commit.e67f0147.Emscripten.clang"
  },
  "schemaVersion": "2.0.1",
  "updatedAt": "2018-11-17T02:02:51.382Z"
}