{
  "contractName": "Contratacion",
  "abi": [
    {
      "constant": true,
      "inputs": [
        {
          "name": "",
          "type": "uint256"
        }
      ],
      "name": "clientes",
      "outputs": [
        {
          "name": "addressCliente",
          "type": "address"
        },
        {
          "name": "idServicio",
          "type": "uint256"
        },
        {
          "name": "importe",
          "type": "uint256"
        }
      ],
      "payable": false,
      "stateMutability": "view",
      "type": "function"
    },
    {
      "constant": true,
      "inputs": [
        {
          "name": "",
          "type": "uint256"
        }
      ],
      "name": "servicio",
      "outputs": [
        {
          "name": "",
          "type": "address"
        }
      ],
      "payable": false,
      "stateMutability": "view",
      "type": "function"
    },
    {
      "constant": false,
      "inputs": [
        {
          "name": "idServicio",
          "type": "uint256"
        }
      ],
      "name": "contratar",
      "outputs": [
        {
          "name": "",
          "type": "uint256"
        }
      ],
      "payable": true,
      "stateMutability": "payable",
      "type": "function"
    },
    {
      "constant": false,
      "inputs": [
        {
          "name": "idServicio",
          "type": "uint256"
        }
      ],
      "name": "devolver",
      "outputs": [
        {
          "name": "",
          "type": "uint256"
        }
      ],
      "payable": true,
      "stateMutability": "payable",
      "type": "function"
    }
  ],
  "bytecode": "0x608060405234801561001057600080fd5b506104e4806100206000396000f300608060405260043610610062576000357c0100000000000000000000000000000000000000000000000000000000900463ffffffff1680632815d3bd1461006757806371a129691461009b578063a39b90b614610116578063cec72f8f1461014a575b600080fd5b610085600480360381019080803590602001909291905050506101b7565b6040518082815260200191505060405180910390f35b3480156100a757600080fd5b506100c66004803603810190808035906020019092919050505061027e565b604051808473ffffffffffffffffffffffffffffffffffffffff1673ffffffffffffffffffffffffffffffffffffffff168152602001838152602001828152602001935050505060405180910390f35b610134600480360381019080803590602001909291905050506102d7565b6040518082815260200191505060405180910390f35b34801561015657600080fd5b5061017560048036038101908080359060200190929190505050610485565b604051808273ffffffffffffffffffffffffffffffffffffffff1673ffffffffffffffffffffffffffffffffffffffff16815260200191505060405180910390f35b600060016060604051908101604052803373ffffffffffffffffffffffffffffffffffffffff168152602001848152602001348152509080600181540180825580915050906001820390600052602060002090600302016000909192909190915060008201518160000160006101000a81548173ffffffffffffffffffffffffffffffffffffffff021916908373ffffffffffffffffffffffffffffffffffffffff1602179055506020820151816001015560408201518160020155505050819050919050565b60018181548110151561028d57fe5b90600052602060002090600302016000915090508060000160009054906101000a900473ffffffffffffffffffffffffffffffffffffffff16908060010154908060020154905083565b600080600060016060604051908101604052803373ffffffffffffffffffffffffffffffffffffffff168152602001868152602001348152509080600181540180825580915050906001820390600052602060002090600302016000909192909190915060008201518160000160006101000a81548173ffffffffffffffffffffffffffffffffffffffff021916908373ffffffffffffffffffffffffffffffffffffffff1602179055506020820151816001015560408201518160020155505050600091505b60018054905082101561047b576001828154811015156103ba57fe5b906000526020600020906003020190503373ffffffffffffffffffffffffffffffffffffffff168160000160009054906101000a900473ffffffffffffffffffffffffffffffffffffffff1673ffffffffffffffffffffffffffffffffffffffff16141561046e573373ffffffffffffffffffffffffffffffffffffffff166108fc82600201549081150290604051600060405180830381858888f1935050505015801561046c573d6000803e3d6000fd5b505b818060010192505061039e565b8392505050919050565b60006020528060005260406000206000915054906101000a900473ffffffffffffffffffffffffffffffffffffffff16815600a165627a7a7230582042015ce3130c6b307a8399d673a4eded11943131c45f1c04f0f1c762e99b0cb00029",
  "source": "pragma solidity ^0.4.19;\r\n\r\ncontract Contratacion {\r\n\r\n    mapping (uint => address) public servicio;\r\n\r\n\r\n    struct CLiente {\r\n        address addressCliente;\r\n        uint idServicio;\r\n        uint importe;\r\n    }\r\n\r\n    CLiente[] public clientes;\r\n\r\n    \r\n    function contratar(uint idServicio) public payable  returns (uint) {\r\n        clientes.push(CLiente(msg.sender, idServicio, msg.value));\r\n        return idServicio;\r\n    }\r\n\r\n\r\n    function devolver(uint idServicio) public payable  returns (uint) {\r\n        clientes.push(CLiente(msg.sender, idServicio, msg.value));\r\n\r\n       for (uint i = 0; i < clientes.length; i++) {\r\n            CLiente cliente = clientes[i];\r\n            if(cliente.addressCliente == msg.sender) {\r\n                msg.sender.transfer(cliente.importe);\r\n            }\r\n        }        \r\n        return idServicio;\r\n    }\r\n}",
  "sourcePath": "D:\\Users\\jose.benito.BABEL-SI\\Desktop\\Hackathon\\contracts\\Contratacion.sol",
  "compiler": {
    "name": "solc",
    "version": "0.4.24+commit.e67f0147.Emscripten.clang"
  },
  "schemaVersion": "2.0.1",
  "updatedAt": "2018-11-17T06:08:20.380Z"
}