{
  "contractName": "Contratacion",
  "abi": [
    {
      "constant": true,
      "inputs": [
        {
          "name": "",
          "type": "uint256"
        }
      ],
      "name": "clientes",
      "outputs": [
        {
          "name": "addressCliente",
          "type": "address"
        },
        {
          "name": "idServicio",
          "type": "uint256"
        },
        {
          "name": "importe",
          "type": "uint256"
        }
      ],
      "payable": false,
      "stateMutability": "view",
      "type": "function"
    },
    {
      "constant": true,
      "inputs": [
        {
          "name": "",
          "type": "uint256"
        }
      ],
      "name": "servicio",
      "outputs": [
        {
          "name": "",
          "type": "address"
        }
      ],
      "payable": false,
      "stateMutability": "view",
      "type": "function"
    },
    {
      "constant": false,
      "inputs": [
        {
          "name": "idServicio",
          "type": "uint256"
        }
      ],
      "name": "contratar",
      "outputs": [
        {
          "name": "",
          "type": "uint256"
        }
      ],
      "payable": true,
      "stateMutability": "payable",
      "type": "function"
    }
  ],
  "bytecode": "0x608060405234801561001057600080fd5b506102f7806100206000396000f300608060405260043610610057576000357c0100000000000000000000000000000000000000000000000000000000900463ffffffff1680632815d3bd1461005c57806371a1296914610090578063cec72f8f1461010b575b600080fd5b61007a60048036038101908080359060200190929190505050610178565b6040518082815260200191505060405180910390f35b34801561009c57600080fd5b506100bb6004803603810190808035906020019092919050505061023f565b604051808473ffffffffffffffffffffffffffffffffffffffff1673ffffffffffffffffffffffffffffffffffffffff168152602001838152602001828152602001935050505060405180910390f35b34801561011757600080fd5b5061013660048036038101908080359060200190929190505050610298565b604051808273ffffffffffffffffffffffffffffffffffffffff1673ffffffffffffffffffffffffffffffffffffffff16815260200191505060405180910390f35b600060016060604051908101604052803373ffffffffffffffffffffffffffffffffffffffff168152602001848152602001348152509080600181540180825580915050906001820390600052602060002090600302016000909192909190915060008201518160000160006101000a81548173ffffffffffffffffffffffffffffffffffffffff021916908373ffffffffffffffffffffffffffffffffffffffff1602179055506020820151816001015560408201518160020155505050819050919050565b60018181548110151561024e57fe5b90600052602060002090600302016000915090508060000160009054906101000a900473ffffffffffffffffffffffffffffffffffffffff16908060010154908060020154905083565b60006020528060005260406000206000915054906101000a900473ffffffffffffffffffffffffffffffffffffffff16815600a165627a7a72305820e1cb12dae9be7688659d2b1b2128d63c2aa038ce8e0b3d9b415f6140b496d12b0029",
  "source": "pragma solidity ^0.4.19;\r\n\r\ncontract Contratacion {\r\n\r\n    mapping (uint => address) public servicio;\r\n\r\n\r\n    struct CLiente {\r\n        address addressCliente;\r\n        uint idServicio;\r\n        uint importe;\r\n    }\r\n\r\n    CLiente[] public clientes;\r\n\r\n    \r\n    function contratar(uint idServicio) public payable  returns (uint) {\r\n        clientes.push(CLiente(msg.sender, idServicio, msg.value));\r\n        return idServicio;\r\n    }\r\n}",
  "sourcePath": "D:\\Users\\jose.benito.BABEL-SI\\Desktop\\Hackathon\\contracts\\Contratacion.sol",
  "compiler": {
    "name": "solc",
    "version": "0.4.24+commit.e67f0147.Emscripten.clang"
  },
  "schemaVersion": "2.0.1",
  "updatedAt": "2018-11-17T05:10:01.767Z"
}